S01E000068656C6C6F5F726567735F4D53535F434D335F6170702E73726563CE
S315200000000000012091010020DB020020DD020020FB
S31520000010DF020020E1020020E302002000000000B1
S31520000020000000000000000000000000E5020020A3
S31520000030E702002000000000E9020020EB02002079
S31520000040ED020020EF020020F1020020F302002042
S31520000050F5020020F7020020F9020020FB02002012
S31520000060FD020020FF020020010C0020250C0020AC
S315200000700503002007030020090300200B030020AE
S315200000800D0300200F03002011030020130300207E
S315200000901503002017030020190300201B0300204E
S315200000A01D0300201F03002021030020230300201E
S315200000B02503002027030020290300202B030020EE
S315200000C02D0300202F0300203103002033030020BE
S315200000D03503002037030020390300203B0300208E
S315200000E03D0300203F03002041030020430300205E
S315200000F04503002047030020490300204B0300202E
S315200001004D0300204F0300205103002053030020FD
S315200001105503002057030020590300205B030020CD
S315200001205D0300205F03002061030020630300209D
S315200001306503002067030020690300206B0300206D
S315200001406D0300206F03002071030020730300203D
S315200001507503002077030020790300207B0300200D
S315200001607D0300207F0300208103002083030020DD
S315200001708503002087030020890300208B030020AD
S315200001808D0300208F0300200000000000000000E7
S315200001904FF0000BDFF81A020068DFF81212096828
S315200001A001F0030100F01C00142801D14BF0020BD2
S315200001B0002901D04BF0010BBBF1000F0DD07E487A
S315200001C07E49DFF8CE21DFF8CA31DFF8C641DFF8F5
S315200001D0C251884218BF3CC0FBD1794880470BF0FA
S315200001E0020ABAF1000F0CD0DFF8BA01DFF8BA1113
S315200001F002680B680FB44FF000024FF0FF03026055
S315200002000B607048704A714B022808D1DFF88A11BA
S315200002100A60DFF88E110A60DFF882110B60012870
S3152000022008D1DFF87A110A60DFF876110A60DFF864
S315200002306A110B606648002809D166486649674AF4
S3152000024000F03AF866486749674A00F035F867488B
S315200002506749684A00F030F8674868495A4A5A4B55
S31520000260594C594D884218BF3CC0FBD1BBF1000FF9
S3152000027016D063486349DFF81E21DFF81A31DFF80C
S315200002801641DFF81251884218BF3CC0FBD10BF053
S31520000290020ABAF1000F03D00FBC02600B60000007
S315200002A0DFF864010FF2030E00474FF000004FF015
S315200002B00001DFF858F1FEE7F8B588420CD0521A53
S315200002C0121112F00F0F00D001329A421CBFF0C853
S315200002D0F0C103F10103F8D1F8BDFEE7FEE7FEE722
S315200002E0FEE7FEE7FEE7FEE7FEE7FEE7FEE7FEE7C0
S315200002F0FEE7FEE7FEE7FEE7FEE7FEE7FEE7FEE7B0
S31520000300FEE7FEE7FEE7FEE7FEE7FEE7FEE7FEE79F
S31520000310FEE7FEE7FEE7FEE7FEE7FEE7FEE7FEE78F
S31520000320FEE7FEE7FEE7FEE7FEE7FEE7FEE7FEE77F
S31520000330FEE7FEE7FEE7FEE7FEE7FEE7FEE7FEE76F
S31520000340FEE7FEE7FEE7FEE7FEE7FEE7FEE7FEE75F
S31520000350FEE7FEE7FEE7FEE7FEE7FEE7FEE7FEE74F
S31520000360FEE7FEE7FEE7FEE7FEE7FEE7FEE7FEE73F
S31520000370FEE7FEE7FEE7FEE7FEE7FEE7FEE7FEE72F
S31520000380FEE7FEE7FEE7FEE7FEE7FEE7FEE7FEE71F
S31520000390704700000000A2A2A2A2008003400880AD
S315200003A0034010800340308003403480034038806F
S315200003B0034018080240000000D000200000012061
S315200003C011040020010000000000000001000000D0
S315200003D00000000000000020000000209001002006
S315200003E0F0060020F0060020201400202014002013
S315200003F0201400204014002040140020D014002097
S31520000400D014002000D000208513002021070020D2
S3152000041080B500AF00F036F94EF60053CEF2000359
S315200004204EF60052CEF20002526942F400725A6130
S31520000430FFF7AEFF80BD00BF80B588B000AF48F2A1
S315200004400003C4F20303D3F8983003F08063FB6003
S31520000450FB68002B40F08B8048F20003C4F20303B4
S31520000460D3F8983003F480537B617B69002B3FD10E
S3152000047041F22443C2F200034EF20012C0F2F552BA
S315200004801A6041F22843C2F200034EF20012C0F273
S31520000490F5521A6041F22C43C2F200034EF20012CA
S315200004A0C0F2F5521A6041F23043C2F2000347F619
S315200004B04002C0F27D121A6041F23443C2F20003B8
S315200004C04EF20012C0F2F5521A6041F23843C2F2DF
S315200004D000034EF20012C0F2F5521A6041F23C437C
S315200004E0C2F200034EF20012C0F2F5521A6045E045
S315200004F041F2F433C2F2000307F1040293E8030049
S3152000050082E8030048F20003C4F20303D3F89C30C8
S315200005104FEA931303F00703BB61BB6907F120027F
S31520000520134413F81C3CFB77FB7F012B0BD0022BCB
S315200005300ED0002B14D100F025F803463B61386914
S3152000054000F042F81AE04FF4004000F03DF815E0C4
S3152000055044F24020C0F20F0000F036F800BF0DE054
S3152000056044F24020C0F20F0000F02EF806E000F022
S3152000057009F803463B61386900F026F807F12007A1
S31520000580BD4680BD80B483B000AF48F20003C4F2FC
S315200005900303D3F8503103F004033B603B68002B80
S315200005A005D147F64003C0F27D137B6004E04FF28D
S315200005B08003C0F2FA237B607B68184607F10C079C
S315200005C0BD4680BC704700BF80B483B000AF786062
S315200005D041F22443C2F200037A681A6041F22843AA
S315200005E0C2F200037A681A6041F22C43C2F2000379
S315200005F07A681A6041F23043C2F2000347F640029D
S31520000600C0F27D121A6041F23443C2F200037A68C6
S315200006101A6041F23843C2F200037A681A6041F246
S315200006203C43C2F200037A681A6007F10C07BD4604
S3152000063080BC704780B483B000AF48F20003C4F298
S315200006400303D3F84C317B607A684FF602039A4253
S3152000065006D04FF60203C0F201039A4204D007E007
S315200006604FF001033B6006E04FF002033B6002E0DF
S315200006704FF000033B603B68184607F10C07BD4668
S3152000068080BC704780B582B000AFFFF7D3FF03462A
S315200006907B607B68012B01D100F004F807F1080785
S315200006A0BD4680BD80B400AF48F20003C4F2030308
S315200006B048F20002C4F20302D2F8982042F4807273
S315200006C0C3F8982048F20003C4F2030348F200025C
S315200006D0C4F20302D2F8982022F08062C3F8982050
S315200006E0BD4680BC704700BF00000000000000002F
S315200006F041F24043C2F200031A780AB90120187069
S31520000700704700BF41F22040C2F2000008B50368DE
S315200007102BB140F20003C0F2000303B1984708BD95
S3152000072080B58CB000AF41F2D432C2F2000207F19C
S31520000730140392E80300186003F10403198007F1FB
S315200007401A034FF000021A8003F102034FF0000251
S315200007501A8003F102034FF000021A8003F102030C
S315200007604FF000021A8003F102034FF000021A70C4
S3152000077003F1010341F2E432C2F2000207F104035D
S3152000078092E80300186003F10403197007F10903C6
S315200007904FF000021A7003F101034FF000021A70A5
S315200007A003F101034FF000021A7003F101034FF029
S315200007B000021A7003F101034FF000021A7003F1D0
S315200007C001034FF000021A7003F101034FF00002FB
S315200007D01A7003F101034FF000021A7003F10103AE
S315200007E04FF000021A7003F101034FF000021A7055
S315200007F003F101034FF000037B624FF00003BB625D
S315200008004FF41673FB6241F28440C2F200004FF4AB
S3152000081016514FF0030200F0D9F807F1140341F204
S315200008208440C2F2000019464FF00F0200F010F982
S3152000083040F20103C3F205034FF03C021A6040F276
S315200008400403C3F206034FF041021A6040F240133C
S31520000850C3F207034FF0FF021A60FB6A002B0CBF9E
S3152000086000230123DBB2FA6A02F1FF32FA62002B7F
S31520000870F3D140F20103C3F205031B687B6240F209
S315200008800403C3F206031B68BB627B6A41F2844001
S31520000890C2F20000194600F04DF9BB6A41F28440CD
S315200008A0C2F20000194600F045F907F1040341F2AF
S315200008B08440C2F2000019464FF00F0200F0C8F83B
S315200008C04FF00003184607F13007BD4680BD00BF34
S315200008D080B483B000AF0346FB714EF20013CEF214
S315200008E0000397F907204FEA5212F97901F01F0108
S315200008F04FF0010000FA01F102F1600243F82210E4
S3152000090007F10C07BD4680BC704700BF80B483B09A
S3152000091000AF78600B46FB707B6803F070427B6803
S3152000092023F07F4323F470034FEA43131A44FB78E2
S315200009304FEA8303134403F100734FF001021A6058
S3152000094007F10C07BD4680BC704700BF80B483B05A
S3152000095000AF78600B46FB707B6803F070427B68C3
S3152000096023F07F4323F470034FEA43131A44FB78A2
S315200009704FEA8303134403F100734FF000021A6019
S3152000098007F10C07BD4680BC704700BF80B483B01A
S3152000099000AF78600B46FB707B6803F070427B6883
S315200009A023F07F4323F470034FEA43131A44FB7862
S315200009B04FEA8303134403F100731B68DBB2184626
S315200009C007F10C07BD4680BC704700BF80B584B0D8
S315200009D000AFF860B9601346FB71FA6841F28443B0
S315200009E0C2F200039A4207D0FA6841F24443C2F2A7
S315200009F000039A4200D000BEFB79F868B9681A460F
S31520000A0000F0EEF9FB681B6803F1300318464FF03F
S31520000A100301FFF79BFFFB681B6803F134031846AD
S31520000A204FF00201FFF792FFFB681B6803F13803C2
S31520000A3018464FF00001FFF789FFFA6841F2792343
S31520000A40C2F20003536207F11007BD4680BD00BF06
S31520000A5080B489B000AFF860B9607A604FF00003C7
S31520000A603B61FA6841F28443C2F200039A4207D0FE
S31520000A70FA6841F24443C2F200039A4200D000BE13
S31520000A80BB68002B00D100BE7B68002B00D100BEC6
S31520000A90FA6841F28443C2F200039A4206D0FA6809
S31520000AA041F24443C2F200039A423DD1BB68002B77
S31520000AB03AD07B68002B37D0FB681B681B7DFB7602
S31520000AC0FB685A7BFB7E42EA0303DAB2FB685A7361
S31520000AD0FB7E03F02003002B23D04FF01003FB6195
S31520000AE07B680F2B01D87B68FB614FF000037B618D
S31520000AF00EE0FB681B68B9683A690A4412781A70D6
S31520000B003B6903F101033B617B6903F101037B61CF
S31520000B107A69FB699A42ECD37A687B69C3EB020354
S31520000B207B607B68002BC7D107F12407BD4680BCBC
S31520000B30704700BF80B487B000AF786039604FF04F
S31520000B400003FB607A6841F28443C2F200039A42B2
S31520000B5007D07A6841F24443C2F200039A4200D099
S31520000B6000BE3B68002B00D100BE7A6841F2844368
S31520000B70C2F200039A4206D07A6841F24443C2F296
S31520000B8000039A4237D13B68002B34D03A68FB6881
S31520000B9013441B78BB752BE07B681B681B7DFB759C
S31520000BA07B685A7BFB7D42EA0303DAB27B685A7381
S31520000BB0FB7D03F02003002BEED04FF000033B61BA
S31520000BC010E07B681B68BA7D1A703B6903F101034C
S31520000BD03B61FB6803F10103FB603A68FB68134441
S31520000BE01B78BB75BB7D002B02D03B690F2BE8D948
S31520000BF0BB7D002BD0D107F11C07BD4680BC7047BA
S31520000C00684620F007018D4689B500AF41F2844041
S31520000C10C2F2000000F01AFABD46BDE889408546BA
S31520000C20704700BF684620F007018D4689B500AFA2
S31520000C3041F24440C2F2000000F008FABD46BDE889
S31520000C4089408546704700BF80B588B000AF786080
S31520000C5039607A6841F28443C2F200039A4207D08F
S31520000C607A6841F24443C2F200039A4200D000BEA1
S31520000C707A6841F28443C2F200039A4207D07A6826
S31520000C8041F24443C2F200039A4240F0A4807B68BA
S31520000C903A689A60FFF7D0FB7A6841F28443C2F241
S31520000CA000039A4206D141F22843C2F200031B6890
S31520000CB0FB6105E041F22C43C2F200031B68FB6195
S31520000CC0FB694FEAC3023B68B2FBF3F37B617B69A6
S31520000CD04FEA53033B613B694FEA9313FB60FB6882
S31520000CE04FEA83133A69C3EB0203BB61FB684FEA01
S31520000CF0C3137A69C3EB0202BB694FEA4303C3EB12
S31520000D000203BA691344BB61FA684FF6FF739A422D
S31520000D1000D900BEFA684FF6FF739A425BD8FB688B
S31520000D20012B31D97B681B6803F10C0318464FF061
S31520000D300701FFF7EBFD7B681B68FA684FEA122272
S31520000D40D2B21A717B681B68FA68D2B21A707B68B5
S31520000D501B6803F10C0318464FF00701FFF7F6FD59
S31520000D607B681B6803F1300318464FF00701FFF735
S31520000D70CDFDBB69FF2B00D900BE7B681B68BA6915
S31520000D80D2B283F83C2026E07B681B6803F10C0373
S31520000D9018464FF00701FFF7B9FD7B681B68FA6814
S31520000DA04FEA1222D2B21A717B681B68FA68D2B255
S31520000DB01A707B681B6803F10C0318464FF0070175
S31520000DC0FFF7C4FD7B681B6803F1300318464FF01C
S31520000DD00701FFF7BBFD07F12007BD4680BD00BF19
S31520000DE080B584B000AFF860B9601346FB71FA682D
S31520000DF041F28443C2F200039A4207D0FA6841F2D4
S31520000E004443C2F200039A4200D000BEFA6841F27F
S31520000E108443C2F200039A4224D1FB684FF08042F9
S31520000E201A60FB684FF00A021A7148F20003C4F2F6
S31520000E30030348F20002C4F20302926C42F08002DD
S31520000E409A644FF00A00FFF743FD48F20003C4F20C
S31520000E50030348F20002C4F20302926C22F08002DD
S31520000E609A6425E0FA6840F20003C4F20103136095
S31520000E70FB684FF00B021A7148F20003C4F2030319
S31520000E8048F20002C4F20302926C42F480729A6421
S31520000E904FF00B00FFF71CFD48F20003C4F20303DA
S31520000EA048F20002C4F20302926C22F480729A6421
S31520000EB0FB681B684FF000021A71FB681B684FF035
S31520000EC000021A72FB681B6803F1080318464FF0EC
S31520000ED00101FFF71BFDFB681B6803F10803184699
S31520000EE04FF00201FFF712FDFB681B6803F10803B0
S31520000EF018464FF00001FFF709FDFB681B6803F158
S31520000F00100318464FF00401FFF720FDFB681B680D
S31520000F1003F1100318464FF00501FFF717FDFB6894
S31520000F201B6803F1340318464FF00101FFF70EFD4D
S31520000F30FB681B6803F1340318464FF00001FFF7E6
S31520000F4005FDFB681B6803F1380318464FF00101C5
S31520000F50FFF7FCFCFB681B6803F1300318464FF0D3
S31520000F600501FFF7F3FCFB681B6803F13003184605
S31520000F704FF00601FFF7EAFCFB681B6803F130031C
S31520000F8018464FF00701FFF7E1FCFB681B6803F1E9
S31520000F90380318464FF00301FFF7D8FCFB681B689F
S31520000FA04FF0000283F84420FB681B684FF00002D4
S31520000FB083F84820FB681B684FF0000283F84C201A
S31520000FC0F868B968FFF740FEFB681B68FA791A7360
S31520000FD0FB68BA689A60FB68FA791A73FB684FF067
S31520000FE000025A61FB684FF000021A61FB684FF05D
S31520000FF000029A61FB684FF000021A62FB684FF00C
S3152000100000025A62FB684FF00002DA61FB684FF07B
S3152000101000029A62FB684FF00002DA62FB684FF02A
S3152000102000021A63FB684FF000025A63FB684FF018
S3152000103000029A63FB684FF00002DA63FB684FF008
S3152000104000025A7307F11007BD4680BD80B584B0F3
S3152000105000AF78607A6841F28443C2F200039A4274
S3152000106007D07A6841F24443C2F200039A4200D084
S3152000107000BE7A6841F28443C2F200039A4207D046
S315200010807A6841F24443C2F200039A4240F0EF806C
S315200010907B681B681B7ADBB203F00F03FB73FB7BB9
S315200010A00C2B00F2D78001A252F823F0E110002089
S315200010B055120020FF100020591100201D1100207C
S315200010C0551200203B1100205512002055120020F9
S315200010D05512002055120020551200201D11002007
S315200010E07B689B6A002B00D100BE7B689B6A002B25
S315200010F000F0B2807B689B6A78689847B7E07B6887
S315200011005B6A002B00D100BE7B685B6A002B00F077
S31520001110A5807B685B6A78689847A8E07B681B6A2D
S31520001120002B00D100BE7B681B6A002B00F0988044
S315200011307B681B6A7868984799E07B68DB69002B97
S3152000114000D100BE7B68DB69002B00F08B807B68BA
S31520001150DB69786898478AE07B681B6803F1280377
S3152000116018464FF00001FFF711FC0346002B0CD068
S315200011707B68DB6A002B00D100BE7B68DB6A002B14
S3152000118003D07B68DB6A786898477B681B6803F125
S31520001190280318464FF00101FFF7F8FB0346002B02
S315200011A00CD07B681B6B002B00D100BE7B681B6BB1
S315200011B0002B03D07B681B6B786898477B681B687D
S315200011C003F1280318464FF00201FFF7DFFB034621
S315200011D0002B0CD07B685B6B002B00D100BE7B689C
S315200011E05B6B002B03D07B685B6B786898477B68CA
S315200011F01B6803F1280318464FF00301FFF7C6FBCF
S315200012000346002B0CD07B689B6B002B00D100BEC5
S315200012107B689B6B002B03D07B689B6B7868984719
S315200012207B681B6803F1280318464FF00401FFF77B
S31520001230ADFB0346002B17D07B68DB6B002B00D160
S3152000124000BE7B68DB6B002B10D07B68DB6B78687D
S3152000125098470CE000BE0AE000BF08E000BF06E0A9
S3152000126000BF04E000BF02E000BF00E000BF07F1BE
S315200012701007BD4680BD00BF80B586B000AF786040
S315200012807A6841F28443C2F200039A4207D07A6810
S3152000129041F24443C2F200039A4200D000BE7B686A
S315200012A01B69002B00D100BE7B685B69002B00D137
S315200012B000BE7A6841F28443C2F200039A4206D005
S315200012C07A6841F24443C2F200039A4255D17B68C0
S315200012D01B69002B51D07B685B69002B4DD07B6846
S315200012E01B681B7DFB727B685A7BFB7A42EA0303F1
S315200012F0DAB27B685A73FB7A03F02003002B29D0DD
S315200013004FF010033B617B685A697B689B69C3EB8E
S3152000131002037B617B690F2B01D87B693B614FF010
S315200013200003FB6012E07B681B687A6811697A68A3
S3152000133092690A4412781A707B689B6903F101024C
S315200013407B689A61FB6803F10103FB60FA683B69DD
S315200013509A42E8D37B689A697B685B699A420CD18A
S315200013607B684FF000025A617B681B6803F1040317
S3152000137018464FF00101FFF7E9FA07F11807BD46B5
S3152000138080BD00BF70B541F2144641F21445C2F249
S315200013900006C2F20005761BB61006D0002455F8CA
S315200013A0243001349847A642F9D841F2144541F237
S315200013B01846C2F20005C2F20006761B00F01EF89F
S315200013C0B61006D0002455F8243001349847A6429A
S315200013D0F9D870BD737461727400000000000000BB
S315200013E000000000656E6420000000000000000080
S315200013F0000000000001000102020303F8B500BF4F
S31520001400F8BC08BC9E467047F8B500BFF8BC08BCBF
S315200014109E46704705070020F106002000000000C8
S315200014200000000000E1F50500E1F50500E1F50505
S3152000143040787D0100E1F50500E1F50500E1F505BF
S7052000019148
