:100000000000012091010000DB020000DD02000081
:10001000DF020000E1020000E30200000000000037
:10002000000000000000000000000000E5020000E9
:10003000E702000000000000E9020000EB020000FF
:10004000ED020000EF020000F1020000F3020000E8
:10005000F5020000F7020000F9020000FB020000B8
:10006000FD020000FF020000B50700009507000038
:100070000503000007030000090300000B03000054
:100080000D0300000F030000110300001303000024
:100090001503000017030000190300001B030000F4
:1000A0001D0300001F0300002103000023030000C4
:1000B0002503000027030000290300002B03000094
:1000C0002D0300002F030000310300003303000064
:1000D0003503000037030000390300003B03000034
:1000E0003D0300003F030000410300004303000004
:1000F0004503000047030000490300004B030000D4
:100100004D0300004F0300005103000053030000A3
:100110005503000057030000590300005B03000073
:100120005D0300005F030000610300006303000043
:100130006503000067030000690300006B03000013
:100140006D0300006F0300007103000073030000E3
:100150007503000077030000790300007B030000B3
:100160007D0300007F030000810300008303000083
:100170008503000087030000890300008B03000053
:100180008D0300008F03000000000000000000004D
:100190004FF0000BDFF81A020068DFF8121209684E
:1001A00001F0030100F01C00142801D14BF0020BF8
:1001B000002901D04BF0010BBBF1000F0DD07E48A0
:1001C0007E49DFF8CE21DFF8CA31DFF8C641DFF81B
:1001D000C251884218BF3CC0FBD1794880470BF020
:1001E000020ABAF1000F0CD0DFF8BA01DFF8BA1139
:1001F00002680B680FB44FF000024FF0FF0302607B
:100200000B607048704A714B022808D1DFF88A11E0
:100210000A60DFF88E110A60DFF882110B60012896
:1002200008D1DFF87A110A60DFF876110A60DFF88A
:100230006A110B606648002809D166486649674A1A
:1002400000F03AF866486749674A00F035F86748B1
:100250006749684A00F030F8674868495A4A5A4B7B
:10026000594C594D884218BF3CC0FBD1BBF1000F1F
:1002700016D063486349DFF81E21DFF81A31DFF832
:100280001641DFF81251884218BF3CC0FBD10BF079
:10029000020ABAF1000F03D00FBC02600B6000002D
:1002A000DFF864010FF2030E00474FF000004FF03B
:1002B0000001DFF858F1FEE7F8B588420CD0521A79
:1002C000121112F00F0F00D001329A421CBFF0C879
:1002D000F0C103F10103F8D1F8BDFEE7FEE7FEE748
:1002E000FEE7FEE7FEE7FEE7FEE7FEE7FEE7FEE7E6
:1002F000FEE7FEE7FEE7FEE7FEE7FEE7FEE7FEE7D6
:10030000FEE7FEE7FEE7FEE7FEE7FEE7FEE7FEE7C5
:10031000FEE7FEE7FEE7FEE7FEE7FEE7FEE7FEE7B5
:10032000FEE7FEE7FEE7FEE7FEE7FEE7FEE7FEE7A5
:10033000FEE7FEE7FEE7FEE7FEE7FEE7FEE7FEE795
:10034000FEE7FEE7FEE7FEE7FEE7FEE7FEE7FEE785
:10035000FEE7FEE7FEE7FEE7FEE7FEE7FEE7FEE775
:10036000FEE7FEE7FEE7FEE7FEE7FEE7FEE7FEE765
:10037000FEE7FEE7FEE7FEE7FEE7FEE7FEE7FEE755
:10038000FEE7FEE7FEE7FEE7FEE7FEE7FEE7FEE745
:10039000704700000000A2A2A2A2008003400880D3
:1003A0000340108003403080034034800340388095
:1003B000034018080240000000D000200000012087
:1003C0006D0D0000000000000000000001000000B2
:1003D000000000000000000000000000900100008C
:1003E0001004000010040000500E0000500E000029
:1003F000000000202000002020000020B00000208D
:10040000B000002000D00020AD0D0000410400002D
:1004100040F22003C2F200031A780AB901201870D2
:10042000704700BF40F20000C2F2000008B5036848
:100430002BB140F20003C0F2000303B1984708BD9E
:100440002DE9F04188B000250DF1060606F8015BA4
:1004500006F8015B06F8015B06F8015B06F8015B34
:1004600006AA22F8025B06F8015B22F8025B06F896
:10047000015B9446B64640F6FC512CF8025B0EF840
:10048000015B04AFC0F2000140F26404C2F2000458
:1004900001F110086E4603C90490B98098E8030082
:1004A00003228EF800508CF80050009031712046E5
:1004B0004FF41651ADF816508DF8055000F068FB5A
:1004C000204639460F2200F023F840F2010040F2A6
:1004D00004023C214127C3F20500C3F2060240F2A8
:1004E0004013C3F2070301601760FF221A60204621
:1004F00000F064F82046394600F060F8204669466E
:100500000F2200F005F8284608B0BDE8F08100BFD2
:1005100040F26403C2F2000398422DE9F00508D0CE
:1005200040F2240CC2F2000C604502D0BDE8F00598
:1005300070470B1E18BF0123002A0CBF002303F0D5
:100540000103002BF2D090F80D80D0F800A0002518
:100550009AF814C048EA0C081CF0200F80F80D80AF
:1005600023D00F2A24D910274E5D0468012307F1F8
:10057000FF3C26700CEA030605EB030C4D19BB4249
:1005800011D236B1EE5C0223BB4226700CF1010C95
:1005900009D2EE5C01332670EE5C0133BB4226705B
:1005A0000CF1020CF5D36546D21A002AD0D1BDE772
:1005B0000AB11746D8E71346D21AF6E740F26403A9
:1005C000C2F2000398422DE9F00508D040F224025F
:1005D000C2F20002904202D0BDE8F0057047002947
:1005E000FAD00D78002DF7D0427B04684FF0000C54
:1005F000237D1A4313F0200FFAD0427325B96346C6
:10060000002DE9D09C46F3E7D0F800A0002601EBCE
:100610000C0801368AF8005018F8065006EB0C0357
:100620002F1E18BF01270F2E8CBF002707F00107D0
:10063000002FE5D0EDE700BF40F26403C2F20003F3
:10064000984210B5044606D040F22400C2F20000E1
:10065000844200D010BD2268117A01F00F0CBCF169
:100660000C0FF7D801A151F82CF000BFBD06000017
:1006700055060000B5060000C5060000AD060000E6
:1006800055060000A10600005506000055060000B2
:10069000550600005506000055060000AD06000096
:1006A000E369002BD6D02046984710BD236A002B63
:1006B000F9D1CFE7636A002BF5D1CBE7A36A002B12
:1006C000F1D1C7E7283222F07F4020F4700302F016
:1006D0007041580101F1007C5CF8003013F0FF0F0D
:1006E00005D0E36A1BB1204698472268283202F001
:1006F000704022F07F4C00F100732CF47001181D43
:100700004901435813F0FF0F05D0236B1BB120465E
:1007100098472268283202F0704322F07F4C03F1A0
:1007200000702CF4700108304901435813F0FF0F9A
:1007300005D0636B1BB1204698472268283202F02F
:10074000704322F07F4C2CF4700003F100730C33E3
:100750004101585810F0FF0F05D0A36B1BB1204684
:1007600098472268283222F07F4C02F0704101F154
:1007700000722CF4700310325801115811F0FF0F61
:100780003FF468AFE36B002B3FF464AF204698471B
:1007900060E700BF684620F007018D4601B540F2D2
:1007A0002400C2F20000FFF747FFBDE80140854684
:1007B000704700BF684620F007018D4601B540F242
:1007C0006400C2F20000FFF737FFBDE80140854634
:1007D000704700BF40F26403C2F20003984270B455
:1007E00007D040F22401C2F20001884201D070BC5F
:1007F00070470469002CFAD04369002BF7D00168D8
:1008000090F80DC00A7D42EA0C0C12F0200F80F81F
:100810000DC0826929D09D1A0F2D38D91025A41832
:1008200026786B1E0E7003F00106012301329D42F3
:10083000826119D946B194F801C0022301329D4268
:1008400081F800C082610FD914F803C0013281F829
:1008500000C00133826114F803C0013301329D42AC
:1008600081F800C08261EFD843699A42BFD1026823
:100870000021131D23F07F4C03F0704202F100733E
:100880002CF470020433520199504161AFE7002DFE
:10089000C5D1EAE72DE9F04F40F264038FB0C2F210
:1008A00000030B9248F200029842C4F2030204468D
:1008B0000D91906C4EF2001100F0298140F4807788
:1008C000CEF200014FF400669764C1F88061956C28
:1008D00040F2000125F48070C4F2010190640B2203
:1008E0002271216000220D460A7101F1100605F8FF
:1008F000082F01F1380A2AF07F4B01F1340925F065
:100900007F4726F07F4805F0704506F070460AF0F4
:10091000704ACDF810A0069529F07F4006F10075C9
:100920000390019509F07049049DCDF81C90DDF805
:100930000C9005F1007529F4700A0A952BF47009E2
:10094000079DDDF818B0CDF814900BF1007905F192
:10095000007B049D01F1300C2CF07F4005F1007507
:100960000CF0704CCDF80CA004950CF100750CF156
:10097000007AAC46039DCDF824A06D010395059D3A
:1009800028F470086D010595069DCA4605F10075AD
:100990000695019D4FEA481814350195079D27F4E7
:1009A000700705F100750795049D7F0104350495D6
:1009B000654614350895099DCDF830801C3509959C
:1009C0000A9D4FF001080C350AF1080A09F10409E3
:1009D0000A9506F1007649F807800C9D4AF80780D1
:1009E000DDF818A010364AF807807251DDF80CA027
:1009F000019E0BF1040B72514BF80A20DDF81CB07C
:100A0000059D4BF80A20049EDDF820A020F470001C
:100A100040010CF1180C7251DDF824B04AF80020A6
:100A20004CF80020DDF828C09C424BF800204CF820
:100A3000052081F8442081F8482081F84C2079D0A5
:100A400040F22403C2F200039C4215D00B9D00200B
:100A50000D7360730D9E6061A66025732061A061B7
:100A600020626062E061A062E06220636063A06374
:100A7000E0630FB0BDE8F08F0D9FA76000F0B8F8FD
:100A800040F21801C2F200010A680D9ED700B7FBC0
:100A9000F6F2D3095708B3F5803F28BF2168D5D2B5
:100AA000012B216850D901F10C0020F07F4C00F09F
:100AB000704606F100702CF4700A4FEA4A1E0D468B
:100AC0005FFA83F8A7EB83171C300126C2F3C73AFD
:100AD00040F80E60A7EBC31381F804A005F8308B33
:100AE0009A1825F07F4305F0704523F47008A2EBB7
:100AF000470705F100751C354FEA4818FFB200237F
:100B000040F80E3045F8086081F83C709EE740F0F0
:100B10008007CEF200014FF480669764C1F88061CF
:100B2000956C4FF0804125F0800090640A2222717C
:100B30002160D7E60D9AA26000F05AF840F2140145
:100B4000C2F200010A68A0E701F10C0C2CF07F4E04
:100B50000CF070422EF4700502F100724FEA451E4F
:100B600008460025DBB21C32012642F80E600D71EA
:100B700000F8303B20F07F4C00F0704000F1007630
:100B80002CF470031C365B0142F80E50F5505DE703
:100B9000F8B50446FFF77EFE22684FF6FF7302F1B8
:100BA000340002F13005C0F20F0305F0704738320F
:100BB00000F0704102EA030607F1007C1D4000EAE4
:100BC000030702F0704201F1007140F2D5707B0121
:100BD0000CF10C0C02F100776D0100220831760156
:100BE000C0F200004CF805206062CA50BA51F8BD4E
:100BF000F0B448F20003C4F20303D3F8982082B0A3
:100C000012F0806F18D1D3F8980010F4805F48D0AC
:100C100040F61C62C0F20002EC4692E803008CE849
:100C20000300D3F89C7002AEC7F38215741914F850
:100C3000081C012977D061D2D3F8504147F6400211
:100C40004FF28003C0F27D1214F0040FC0F2FA23B9
:100C500040F21C0640F2140540F2180440F2080C61
:100C600040F20C0040F2100140F2040708BF1346A6
:100C7000C2F20006C2F20005C2F20004C2F2000C89
:100C8000C2F20000C2F20001C2F20007CCF800205C
:100C90003B6033602B60236003600B6002B0F0BCEC
:100CA00070474EF2001340F21C0540F2140440F26B
:100CB000180040F2080747F6400C40F20C0140F2E1
:100CC000100240F20406C0F2F553C2F20005C2F26F
:100CD0000004C2F20000C2F20007C0F27D1CC2F2A2
:100CE0000001C2F20002C2F20006C7F800C0336081
:100CF0002B60236003600B601360CFE744F2402356
:100D000040F21C0540F2140440F2180040F20807BB
:100D100047F6400C40F20C0140F2100240F204068B
:100D2000C0F20F03D1E740F21C0540F2140440F278
:100D3000180040F2080747F6400C40F20C0140F260
:100D4000100240F20406C2F20005C2F20004C2F230
:100D50000000C2F20007C0F27D1CC2F20001C2F224
:100D60000002C2F200064FF40043BEE748F200035F
:100D7000C4F20303D3F84C114FF6020291420BD197
:100D8000D3F8980040F48072C3F89820D3F89810F4
:100D900021F08060C3F898004EF60053CEF20003B5
:100DA0005A6942F400715961FFF7F2BA70B540F622
:100DB0003C6640F63C65C0F20006C0F20005761BBA
:100DC000B61006D0002455F8243001349847A642C6
:100DD000F9D840F63C6540F64066C0F20005C0F226
:100DE0000006761B00F01EF8B61006D0002455F859
:100DF000243001349847A642F9D870BD73746172EB
:100E0000740000000000000000000000656E642017
:100E100000000000000000000000000000010001D0
:100E200002020303F8B500BFF8BC08BC9E46704739
:100E3000F8B500BFF8BC08BC9E467047250400000A
:100E4000110400000000000000000000000000008D
:100E50000000000000E1F50540787D0100E1F505A6
:100E600000E1F50500E1F50500E1F50500E1F50516
:040000030000019167
:00000001FF
